@ba22 ; Affinity 
@bb01 ; MemBank 
@bc03 ; Command 
:020000020C00F0
:1000000048C1089581E084C082E082C083E080C05E
:1000100084E07EC085E07CC0F3D0F6C087E078C085
:1000200088E076C089E074C08AE072C08BE070C05E
:100030008CE06EC08DE06CC06EC000008AD09CC0A9
:1000400080E166C081E164C082E162C083E160C09A
:1000500084E15EC085E15CC086E15AC087E158C09A
:1000600088E156C006C10000D1C000008BE150C03D
:100070008CE14EC08DE14CC08DE14AC08FE148C09B
:1000800080E246C081E244C082E242C0FCC000007F
:1001000001002FD20201000095874C67C778006D6F
:10011000A895FED1FFCF0FB73F014001E091486A9B
:10012000E395EF3008F0EE27E093486AF0E0E656FA
:10013000FF4E09944FC25AC263C293C259C35EC3F1
:1001400063C368C36DC372C377C37CC381C386C3F3
:100150008DC3E89B08C0E89820921301C092020862
:10016000CF90CF901895209252010091160B0093DA
:10017000160B2092150B1895FF93EF93EFB7EF93A3
:10018000DF93CF93BF93AF93F894E0911C0BF09162
:100190001D0B7894A091A869B091A969E093A86912
:1001A000F093A969EA1BE093AA69FB0BF093AB6992
:1001B0006894B2E0E037FB0708F4ED9AB3E0EC3066
:1001C000FB0758F0E894B4E0E833FB0708F4ED9A35
:1001D000B5E0E03AFB0708F0ED9AF091140BE0E18E
:1001E000A091C369EE9BFE27EE98E3E0A211E4E044
:1001F000E0933302F093140BE091AC69FDE10994B4
:1002000001E00093530118950C9423253F01E091E0
:10021000346AF091356A009110060193009111063D
:100220000083E091366AF091376A019100930C06E1
:100230000191009308060191009309060191009332
:10024000000601910093010601910093B000019115
:100250000093346A01910093356A019100930B0673
:10026000019100930A06E093366AF093376AF3012E
:10027000189500E00093860601E00093870604E1EC
:1002800000930E6A18950FB72092031021600FBFDC
:100290001895A895F89422242DBAE8EDE09334003F
:1002A000E5E8E0930110EFE1F9E6EDBFFEBFE0E025
:1002B000F9E6C0EADBE021922197E9F720922508D0
:1002C000A2E4A0931202AFE4A0931302A3E0A093D0
:1002D0003302A8E0A0935704A4E0A0937104A09374
:1002E0007204A09375040D98059A0C98049A4F9A7D
:1002F00047984F98479A47986598699A6A9A61987B
:100300006298A4E0A0935304A0937304A093740490
:10031000A0E0A093E705A7E1A093010AA1E0A093C4
:10032000030AABE0A093000AE0E0FBE02082218218
:1003300022862386A0EEBEE22486B587A1E0A683AE
:10034000A1E0A583A3E0A083E0E1FBE02082A2E09E
:10035000A183A1E4A483A1E0A683A583A3E0A08355
:10036000A3E0A0932002A4E0A0932102E1E0E093A7
:10037000C001E3E4E093C901EEEEE093CB01E1E0DC
:10038000E093C801A0E1A0931102E0E8FBE0A2E045
:10039000A0933702A0933802A4E0A08BA18BA1E820
:1003A000A087A187E0E8FBE0B8EDA0E0A183A0E092
:1003B000A283A3E3B0933400A28BAFEFA2A723A63E
:1003C000A6A727A6A0A7A1A7A4A7A5A7A685A0FF23
:1003D000FDCFC0910614A1E0C13009F4A3E0C23002
:1003E00009F4A9E0B0933400A083A0915101A0FDCD
:1003F000FCCFA9E1A0935001A1E0A0935301A093E9
:100400005201A3E8A093B000A3E8A093B400A3E82E
:10041000A093B200E0E0F6E0A1E1A083A0E0A18318
:10042000ABE0A283A0E0A383A0E0A483A0E0A0931C
:100430000506A2E0A087A1E0A187AFEFA093850603
:10044000A4E2A0938206A1E0A0938606A7E1A09370
:100450008006A4E0A0937604A1E4A093A006AFEFE9
:100460002092A206A093A3060E949027E8EDE4BF85
:10047000E8E0E09300010E94691F0E94451C0E9471
:1004800085270E9485270E94E0230E948D2274D038
:1004900024D4BCD6C9D50E943A240E9499240E9433
:1004A000DF260E948527E1E0E0931168E091106863
:1004B000E395E093106815D30C94B2240895E0E01E
:1004C00003C0E0E101C0EFEFE4990BC0E095E093D9
:1004D000A80B2092A90BEFEFE093AC0BE093AD0BD0
:1004E0000AC0E095E093AC0B2092AD0BEFEFE093E8
:1004F000A80BE093A90BEFEFE093AA0B2092AB0BB4
:10050000E093AE0B2092AF0BE1E0E093840B0895F3
:1005100000240A94E0E8FBE000A601A604A605A6D4
:10052000EACF0024E0E8FBE000A601A604A605A6A9
:10053000E2CFE0912F70E1FF03C000C0E0E001C016
:10054000E1E8E093880BE093890B0895E1E0F2E0A5
:100550002092A80B2092A90B2092AC0BE093AD0B3C
:100560002092AA0BE093AB0B2092AE0BF093AF0B53
:10057000E1E0E093840B08954F9A479A0E94991204
:100580002CBAE0E000C0FE2FFF7721F0EA9509F4D5
:10059000E29A09F0E298E0933D6A0895E0913D6A9D
:1005A000EF77E13009F4EE27EE230895E09108702B
:1005B000E09339680895E0913D6AE078E4CFE699E8
:1005C00003C0E69AECE002C0E698EDE0E093486AEA
:1005D000089508952092486A9BDFE0910770F0E348
:1005E000EF9FE0ECF3E0E00DF11D5CC1E1E0E09392
:1005F000486AE1996198E19B6298E0ECF3E052C1AE
:10060000E2E0E093486A61986298E39927C0E0913C
:10061000496AF3E700904A6A10904B6AF0810F1A1A
:100620001208F091396A0F0E121C00924A6A109259
:100630004B6A0F2EF3E70192E093496A2092050678
:10064000E19904C0E19AE6E6FFEC03C0E198E6E92F
:10065000FFEC00900F6A02FE789679D2E0ECF3E0AE
:1006600021C1E091426AF091436AF7FF05C0F0951D
:10067000E195FF4FF7FDFFE7EE0FFF1F0F01E09140
:100680002E70E770EA5BF0E0FC4E099407C009C0E9
:100690000CC011C014C01AC020C029C0F001889439
:1006A00031C0F001EE0FF21D2DC0F0011694079439
:1006B000E00DF11D27C0F001E00DF11D23C0F00198
:1006C000E00DF11DF8F0E00DF11D1CC0F001EE0F82
:1006D000FF1FC0F0EE0FFF1F15C0F001EE0FFF1F50
:1006E00088F0EE0FFF1F70F0E00DF11D0BC0F00160
:1006F000EE0FFF1F38F00F01EE0FFF1F18F0E00D97
:10070000F11D00C008F4FFEFF0933A6AE091047025
:10071000E095E6950E2E0694E00D0694E00DE05F60
:10072000EF9FF001EE0FFF1F08F4FFEFFF2321F40E
:10073000E0913A6AE211F1E0E091396AF093396AA6
:10074000FE0FF795E0913B6AEE2321F0FE1779F05A
:1007500050F114C02092396A20923A6AEFEFE09388
:10076000486A2092386AABDEE0ECF3E09BC0E0918F
:10077000386A0090327002FCE69524C0E0913A6835
:10078000E211EA95E0933A68E091386AE211EA955D
:10079000E093386A0090327000FCE69501FCE69523
:1007A00002FCE6950FC0E0913A68E395E211E09310
:1007B0003A68E091386AE93008F4E395E093386AE2
:1007C00001C0E0E0619A629AE851F0E0FC4E0994C1
:1007D0003FC038C031C02AC023C01CC015C00EC0E5
:1007E00007C000C0E3E0E093486A48D0E0EA49C0AF
:1007F000E4E0E093486A42D0EAEA43C0E5E0E093EF
:10080000486A3CD0E4EB3DC0E6E0E093486A36D06D
:10081000EEEB37C0E7E0E093486A30D0E8EC31C057
:10082000E8E0E093486A2AD0E2ED2BC0E9E0E093EB
:10083000486A24D0ECED25C0EAE0E093486A1ED077
:10084000E6EE1FC0EBE0E093486A18D0E0EF19C075
:10085000EFEFE093486A12D0EAEF13C0EFEFE093B6
:10086000486AEFEF33DEEFEFFFEF19C0EFEFE093F1
:10087000486AEFEF36DEEFEFFFEF11C0E0913A6824
:1008800023CEF0913B6A0090307000FEF69501FE99
:10089000F69502FEF695EF0F08F4EFEFFCE0EF9F00
:1008A000F00100C0E0930C0BF0930D0BE1E0E0933E
:1008B000060B0401F3010FBF1895E6E000902F70BE
:1008C00000FEE69500900F6A02FEE695E670009045
:1008D000926A0E2202103BC0E09B90913770E09923
:1008E00090913870E0913B6AEE2389F1E0913A6A89
:1008F000E99F0894001C111C80E0881F90912F70C4
:1009000092FD000C92FD111C92FD881FEFE2F8E6AB
:10091000A081B181C281D381E09B05C0A019B1093A
:10092000C80BD20904C0A00DB11DC81FD21DA083E1
:10093000B183C283D383A481B581C681D781A00D41
:10094000B11DC81FD21DA483B583C683D783C091B0
:100950003E6AE0913C6AF0913D6ACF01982797FD8D
:10096000F078CF018F779F77E299CC27891721F410
:10097000903089F0891769F030F0C15048F5C09186
:100980000370EA9509C0C15018F5C0910270E39553
:1009900003C0CC2701C0EF2FE7FFE09AE7FDE09806
:1009A000E0933C6AEF77E0933B6A09F0E2E0E0997C
:1009B000E160F0911468F0FDE460F7E00E948423A8
:1009C000E099E49AE09BE498E099E598E09BE59A49
:1009D000C0933E6A0895EFE2F8E60580A681B781EC
:1009E000000CAA1FBB1F000CAA1FBB1F000CAA1FD4
:1009F000BB1F02101196A087B18724822582268210
:100A00002782E0913968E211EA95E0933968E211B2
:100A1000EE13D1DDE0910470E195E03408F4E0E4F8
:100A2000E03C08F0E0ECE093416A0895E770F0E004
:100A3000E85CF545E081089501020408102040803B
:100A4000019009928A95E1F7089529928A95E9F72C
:100A50000895E0E0FFE80990E025E0818A95D9F764
:100A6000EE230895799FE001689FD001699FB00D42
:100A7000C11DD21D789FB00DC11DD21D089580E407
:100A800004C080E202C080E100C0C083D1838283C1
:100A9000238224822582D9CF0DD007C00BD003C07A
:100AA00009D0AA0FBB1FAA0FBB1FAA0FBB1FAA0FFB
:100AB000BB1F0895B381A081AB0FB181B21DDC9142
:100AC000CC93A481B581AD1BB209AC0FB21DA48338
:100AD000B583C281D381D395DC1708F0DD27D3839A
:100AE0000895C0E0D8E6AAE1B0E00ED0C0E0D8E6B4
:100AF000AEE1B0E014C0C0E0D8E680E0A6DF00C000
:100B0000EFEFE0931F68089584D0F001A095B095B1
:100B1000C095D095A083B183C283D383089579D043
:100B2000F00180830895E091346AF091356AEF2BEB
:100B30000895CF93C091346AC21106C0C091356A3E
:100B4000C21102C0CF9103C0CF9188940895CF9372
:100B5000C2E0C0930A06C1E0C0930D06C191C093E4
:100B60000006C191C0930206C191C0930306C191D2
:100B7000C0930406C191C0930C06C191C0930806AE
:100B8000C191C0930906C191C0930006C191C09361
:100B90000106C191C093B000C191C093346AC19164
:100BA000C093356AC191C0930B06C191C0930A06E8
:100BB000E093366AF093376ACF910894089576955A
:100BC0006795769567957695679576956795809103
:100BD000061190910711861B970B6091041170917B
:100BE000051140DFC695B795C695B795C695B795DB
:100BF000C695B7957C2F6B2F08950C9410000C941C
:100C000011000C9412000C9413000C9414000C941A
:100C100015000C9416000C9417000C9418000C94FA
:100C200019000C941A000C941B000C941C000C94DA
:100C30001D000C941E000C941F000C9420000C94BA
:100C400021000C9422000C9423000C9424000C949A
:100C500025000C9426000C9427000C9428000C947A
:100C600029000C942A000C942B000C942C000C945A
:100C70002D000C942E000C942F000C9430000C943A
:100C800031000C9432000C9433000C9434000C941A
:100C900035000C9436000C9437000C9438000C94FA
:100CA00039000C943A000C943B000C943C000C94DA
:100CB0003D000C943E000C943F000C9440000C94BA
:100CC00041000C9442000C9443000C9444000C949A
:100CD00045000C9446000C944700E0EDFAE6C0E0B5
:100CE000D4E7CFDEE4ECFAE6C0E2D4E7CADEEAEC11
:100CF000FAE6C0E4D4E7C5DEE6EDFAE6C0E6D4E7FE
:100D0000C0CE80911368FFE0E0E080FF0AC0E59B61
:100D1000E160E599E26081FF04C0E599E460E59B4C
:100D2000E8600E948F230895F894E091FF69209273
:100D3000FF697894E03009F40895EC3208F0BECBF6
:100D4000C091FD69D9E6E755F0E0F94E09950C949C
:100D5000D616B4CBB3CBD4C0DCC0B0CBAFCBAECB0C
:100D6000ADCBACCB04C111C123C12EC13DC1A6CBBB
:100D7000A5CBA4CBA3CBA2CBB5C0A0CB9FCB9ECB06
:100D80009DCB9CCB9BCB9ACB99CB98CB97CB96CB3F
:100D900095CB94CB93CB92CB91CB90CB8FCB8ECB6F
:100DA0008DCB8CCB8BCB6AC15EC10895A895F8948E
:100DB0006091ED6A7091EE6A789401DFEB01CF5D8E
:100DC000D040E0EDFAE66ADEB093E16A6894E09123
:100DD000C369E0FDE894D091E96AC091EA6AC7FF6F
:100DE00005C0C095D195CF4FC7FDCFE7DD0FCC1F14
:100DF000E4ECFAE653DE16F0B093EF6A16F4B09323
:100E0000F06AD091EB6AC091EC6AC7FF05C0C0954B
:100E1000D195CF4FC7FDCFE7DD0FCC1FEAECFAE647
:100E20003DDE16F4B093EF6A16F0B093F06AA0912D
:100E3000EF6AAB0FA795A093C669A25308F4A0E090
:100E4000A093E26AA091EF6AB091F06AAB1BA05840
:100E5000A093F16AC091446AD091456ACC0FDD1F1E
:100E600008F4DFEFCD2FE6EDFAE618DEB093F26A74
:100E7000E091096AF0910B6AEF1708F4EF2FE09305
:100E80000C6AF0910C6AE5EBEF9FE12DE0930D6A9F
:100E900080911A70A0913470B091F26ABA1708F07C
:100EA0008160A0913570B091E16ABA1708F0846052
:100EB000A0913670B091E26ABA1708F088600E947B
:100EC000C82309F082600E94CC2380931A70089591
:100ED000529B05C0E6ECFFEC2CCE5299FBCFEEED19
:100EE000FFEC27CE20921268E3E1F8E621922192EE
:100EF000219221922192219221922192F2DD94C09D
:100F000055DB898190911268809312688913E9DD1D
:100F10008DC04CDB8981F091126880931268F827AC
:100F20008A8190911368809313688927F82BE09148
:100F3000006AE530C8F08B81909114688093146842
:100F40008927F82BE63080F08C819091156880938A
:100F500015688927F82BE73038F08D819091166855
:100F6000809316688927F82BF211BBDD5DC0FF273F
:100F7000888184FB880F80F990911368EFE14DD050
:100F800080931368F211ADDD55C0FF2788819091E1
:100F900013683AD0809313688881880F8295909166
:100FA0001468E1E03AD080931468F2119ADD42C0EF
:100FB000FF278881880F90911468EEE12ED08093EE
:100FC0001468F2118EDD36C0FF2789819091146874
:100FD0001BD08093146889819091156819D08093F3
:100FE0001568F2117EDD26C0FF2789819091156872
:100FF0000BD08093156889819091166809D08093F1
:101000001668F2116EDD16C08295880FE0EE05C0FD
:10101000869586958695EFE100C08E23E095E923BD
:101020008E2B9827F92B089501D004C0E091126807
:101030000C94C31280911368F0E3E0E082FF04C0D7
:10104000E59BE061E599E0620E949D2784FF08C06E
:1010500020922F6820923068209231682092326866
:1010600080911468089526D041F498DA31F482E032
:10107000CEEFD4E10E941F240CCE0895E881E93020
:1010800008F00895F0E0EA5BF74E099408C008C044
:1010900008C007C008950895089508950895089513
:1010A000F8CDE854E09311681CDDE0911168E1305F
:1010B000B9F70895F0910C68E0910D68EF2B089551
:1010C000A881A3700E942923B981CF93DF930E9446
:1010D000DF22DF91CF9158F5F881EA81FC7039F079
:1010E000F43031F0FC3039F0E4FF18C00AC01FC002
:1010F000AE17E1F01CC0AE2F0E94E222C0F42160C6
:1011000015C0E3FB0E941615E095AE23E0950EF4A2
:10111000AE2B0E94E22258F4216008C0E3FB86DC7B
:10112000AE230EF0EE27EA2709F001C048CA089561
:10113000A881A3700E942923B9810E94DF22EA2F8F
:1011400004C1AA81B9810E942A23E881E370E09357
:10115000E46ABB810E94DF22A093E56AB3950E94F6
:10116000DF22A093E66AB3950E94DF22A093E76A8C
:10117000B3950E94DF22A093E86AC4EEDAE6E7C0E6
:1011800079F40E94E523E53058F0A881A3700E940D
:101190002923B981AA810E94E2222160EA2FD5C0C9
:1011A000EBC0D0C0E9F70E94E523E131C8F3B98173
:1011B000AA810E942A23E4EEFAE6A881A370A08304
:1011C000AC81A183BD81B283BE81B383BF81B4836F
:1011D000BB810E94E222A093E56AB395A091E66AE2
:1011E0000E94E222A093E66AB395A091E76A0E946A
:1011F000E222A093E76AB395A091E86A0E94E222F6
:10120000A093E86A2160C4EEDAE6A1C0E0EFE093C3
:10121000A96A0E94FD15E093AA6A0E940D16D09358
:10122000AB6AC093AC6AB093AD6AA093AE6AC5EBEB
:10123000DAE6E0E8E88385E00E942915E883CFEA52
:10124000DAE6E0EDE883E0E0E983E0E0EA832B82A0
:101250002C8285E00E942915E88325D000C0F7E0A4
:10126000E0910A0BEF23E093BF6A2092C06A0895D1
:10127000E091BF6AEA9552F4E091C06AEE0FE76030
:10128000EF77E093C06AF0910A0BEF23E093BF6A17
:101290000895F0910C68E0910D68EF2B0895E091AE
:1012A000BE6AEE2308952092BE6A0895F091BD6A49
:1012B000E093BD6AFE1B08F4F195F53008F0F3CF1A
:1012C0000895E9EAFAE6CF93DF93A991AF70B1915F
:1012D000BF70AB1731F4A991B191AB1711F4EF3A8C
:1012E000D1F7DF91CF910895E091F36AE395E33070
:1012F00008F0E0E0E093F36AF0E0E058F64E09947D
:1013000002C00CC015C0E0911970E5FF05C0E09166
:101310000D70EF73E068AAC0E0E0A8C0E09119701A
:10132000E5FF03C0E0910E70A6C0E09100709EC082
:10133000E0911870E3FFD8CFE0910000A1C091D0F8
:10134000A4D0D2CF8ED0A5D0CFCFA5D0CDCFE9918C
:10135000DE017AD0E85FE883ED91E983ED91EA83DD
:10136000ED91EB83ED91EC839BD0BECFE0E0F0E01C
:10137000A0E0B0E0B6D0BDC074D0E091F46AE395CF
:10138000E93008F0E0E0E093F46AF0E0E553F64E6F
:101390005BD00995A9CF85C007C008C009C00AC0A5
:1013A0000BC00CC00DC00EC00FD012C03DD040C04D
:1013B00043D046C011D014C017D01AC01DD020C0D1
:1013C00023D026C029D02CC0E0914B6AF0E078C031
:1013D000E0912868F7E074C0E091F26AF8E070C02C
:1013E000E0911068F9E06CC0E091976AFAE068C09B
:1013F000E091936AFBE064C0E0913768FCE060C074
:10140000E0913868FDE05CC0E091F16AFEE058C010
:10141000E091F16AFFE054C0E0910D6AF0E150C044
:10142000E0911B68F1E14CC0E0913168F8E148C0FF
:10143000E0913268F9E144C0E091E16AFAE140C02C
:10144000E091E26AFEE23CC0C0EDD9E60895A8EC66
:10145000B9E60895AAECB9E60895A091C769B9E67E
:101460000895F8DFA093C769089543C0EDDFF1E068
:10147000F883E98345C0E8DFF2E0F883E98340C000
:10148000E3DFF3E0F883E9833BC0CFE03DC0C0EF8A
:101490003BC0CCE339C0D8DFE4DF2882E9833AC01F
:1014A00042C0C8EDD9E6E4E0E883A1E2B8E6ED91F8
:1014B000EC83ED91EB83ED91EA83ED91E98333C009
:1014C000E983FA83F7E0F8832AC0EF9AC9EADAE6FB
:1014D00034C0EF9ACFEADAE630C0EF9AC5EBDAE62D
:1014E0002CC0B2DFE883F983AA83BB83E0E1EC83FD
:1014F0001FC0F091DD69FF0F28F1FF0F18F12BC01D
:10150000A6DFE3E021D0DDCBA8DFE1E01DD0CD9365
:10151000A9CFA3DFE3E018D0D4DBA4CF9EDFE7E0C0
:1015200013D0CDDB9FCF96DFFFE315D0C4DB9ACF7E
:1015300091DFFFE310D0C1DB95CF89DFFFEF0BD048
:10154000B8DB90CFF0E007C0F091DD6902C0FF1F6B
:10155000C8F3E695E0F3F093DD6908958F93EEEE1E
:10156000F9E6A091006A8A2F8C0FB081A193BA1777
:10157000A081B991BA07B1938C13FACFC091FD69DC
:101580008F910895E2E013C0E3E011C0E4E00FC0E2
:10159000E5E00DC0E6E00BC0EAE009C0E3E0F4E0FE
:1015A00007C0E4E0F7E004C0E6E0F9E001C0FE2F88
:1015B000AE1718F0FA1708F00895E0912D68F09131
:1015C0002E683196E0932D68F0932E68E09125689F
:1015D000E395E0932568EF91EF9100C0E0E099C0BA
:1015E00083DEE3E296C0CEDFEDE193C0CBDFAADE7F
:1015F000E1E08FC0C9DFC0DEE2E08BC0D2DFBCDE3D
:10160000E3E087C0C1DF9EDEE4E083C0BDDF6CDEC7
:10161000EFE17FC0B7DF93DEE0E27BC0B3DF92DEB5
:10162000E1E277C0B7DFE5E074C0B0DFE6E071C0AB
:10163000ABDF88DEE7E06DC0A9DF84DEE8E069C0EB
:10164000A1DF9ADEE9E065C09DDF96DEEAE061C0D9
:1016500099DF92DEEBE05DC097DF8EDEECE059C0F3
:1016600093DF8ADEEDE055C08FDF86DEEEE051C00D
:101670008BDF82DEEFE04DC087DF7EDEE0E149C038
:1016800083DF7ADEE1E145C07FDF76DEE2E141C063
:1016900079DFE091026AE395E211E093026AE3E107
:1016A0003AC070DF4FDEE4E134C078DF4BDEE5E1C5
:1016B00030C0A43011F058F41CC0E881E3FD03C031
:1016C00037DDE6E126C04ADF5BDDE7E122C0E881E5
:1016D000FE2FE370F3FD06C0F2FF09C059DF31DDD4
:1016E000E8E117C061DF3ADF5DDDE9E112C0EBE15F
:1016F00010C0E2E20EC0EEE10CC050DFE091036AE0
:10170000E395E211E093036AE23009F4D9DCEAE1FF
:1017100004C02092026A2092036AE093FF69E0917C
:10172000B269E093FE692062089532DFB2DD39F4D8
:10173000B6DD29F49DDD19F4C8DEE4E2EACF4ECF30
:1017400027DFE5E2E6CF24DFE6E2E3CF21DFEA812F
:10175000ADDD9FDD31F4A3DD21F481DDB6DEE7E20E
:10176000D8CF3CCF2197ADDD09F03ACFE1E0E0934F
:10177000BE6AB3DEE8E2CDCF0FDF2197A2DD09F02C
:101780002FCFFE81EF81F06CF093ED69E093EC696F
:10179000E1E0E093BE6A9DDEE9E2BBCFEBE2B9CFC8
:1017A000E091006AE350EB30F8F4E093006AF0E077
:1017B000E950F44E0995D1F4E091006AA4E0B8EB49
:1017C000AE0FB21DBC91CB0FAE2FAB1BA093006A26
:1017D000C093FD69D9E6E881E93040F4F0E0E85FC4
:1017E000F34E0995EAE295CFE8DEF8CEF9CE1FC0B8
:1017F0001CC01DC02DC019C025C02AC026C022C0D3
:1018000016C023C000000002000402060400060007
:1018100008C007C006C005C006C005C004C003C09C
:1018200002C0A4DD08958EDD08951894089598945B
:101830000895E8E0F8E621C0ECE0F8E61EC0EEE02E
:10184000F8E61BC0E0E0F8E610C0E4E0F8E605C00A
:10185000F3DFD1F0EEDFC1F0F2CFA581BD81AB1790
:1018600099F4A481BC81AB1779F4A381BB81AB1738
:1018700059F4A281BA81AB1739F4A181B981AB17B0
:1018800019F4A081B881AB170895E0E0E093AC694A
:101890002092DD690895FFFFFFFFFFFFFFFFFFFFBD
:101A000024C04CC04FC058C061C058C177C1ADC1DF
:101A1000BDC1E1C1EAC1FAC102C20AC212C21DC2FD
:101A200061C066C099C0EBC000C11DC11FC120C10B
:101A300021C122C123C124C125C126C127C128C17A
:101A400029C12AC12BC12CC12DC1E2E0E093110BA9
:101A5000332424C0E0912968F0912A683196E093FC
:101A60002968F0932A680AC0E0912B68F0912C68ED
:101A70003196E0932B68F0932C6800C0E0912568C4
:101A8000E395E093256800C0332403C0E3E03E2ED5
:101A900000C0E398E998ED98E1E00AC2EC990C9453
:101AA000B42200C0ED99F0CF7EF73394EAE9F5ED6A
:101AB0000E949915E3E0FCC1ED99E6CF2EF733942F
:101AC000E2EBF5ED0E949915E4E0F2C1ED99DCCF6F
:101AD0002EF4339409F43A94E4E0EAC1E32DE431BE
:101AE00008F4D2CF3092B269E39AF2D9E1E1E0C1D1
:101AF000ED99CACF4EF2E39AF0D9EE27529BE395C7
:101B0000F091C369E093C369FE13EE9AE998EA98ED
:101B1000EF98EB982092B3692092B169E4EBF9E673
:101B2000CFE02192CA95E9F7E0912668E395E43683
:101B300050F0E0912568F0912768E0932768EF1B4B
:101B4000E0932868E0E0E0932668E091C569E395BA
:101B5000E093C569E5E1ACC1ED997CCFE091B36953
:101B6000EF3008F081CFF4EBEF0FF9E6F21D319280
:101B7000E45BE093B369E091B169E325E093B16977
:101B80005EF509F071CFE3E0E093110BE09121687D
:101B9000F09122683196E0932168F0932268E091F9
:101BA0002368F0912468E21DF21DE0932368F0930E
:101BB0002468E091AA69F091AB69F695E795F695EE
:101BC000E795F695E795E21DE001FBEAEF9F10929D
:101BD000E2690E01E4E16CC1E091AA69F091AB69A0
:101BE000F695E795F695E795F695E795E21DE00100
:101BF000FBEAEF9F1092E0690E01E3E159C1ED9B12
:101C00000EF428CFE091AA69F091AB69F695E795BB
:101C1000F695E795F695E795E21DE001FBEAEF9F63
:101C20001092E1690E01E5E143C1E2E0E093110B9E
:101C30002092A8692092A969ED9B0EF00BCFE0914C
:101C4000AA69F091AB69F695E795F695E795F69553
:101C5000E795E21DE001FBEAEF9F1092E3690E01B8
:101C600039D1E5E025C1E398E6E11EC0E7E11FC0F8
:101C7000E8E11AC0E9E11BC0EAE116C0EBE117C0D8
:101C8000ECE112C0EDE113C0EEE10EC0EFE10FC0D8
:101C9000E0E20AC0E1E20BC0E2E206C0E3E207C014
:101CA000E4E202C0E2E103C0330C30F801C11EF0EF
:101CB00030FCD0CEFDC030FECDCEFAC0E39AE6EFC8
:101CC000FFEC0E9499150EF0DFCEC091DD69D09136
:101CD0001970EB99D860D3FFC070D0911870EB9950
:101CE000D260EA99D0FFCC7FD1FFC370EF99CFEFDC
:101CF000C093DD69529B7799C9CE00C0E99AD09113
:101D00002A70C0910A0BCD23D0912970CD0FCF70CE
:101D1000C093DE69C15BDCE0F001CD9FF8940092D6
:101D20001C0B10921D0B78940F01E091AA69F091A1
:101D3000AB69F695E795F695E795F695E795E21D7B
:101D4000E001FBEAEF9F1092E4690E01E0E0E0930E
:101D5000110BE091DD69E0FF06C0C090C869E89A08
:101D6000EFE0E0931301E7E0A3C0F091DD69E091BB
:101D7000C969F1FDE0930208E8E6F1E0F894E09328
:101D80001C0BF0931D0B7894E8E092C0D0912C705E
:101D9000C0910A0BCD23D0912B70CD0FCF70C09383
:101DA000DF69CE5AD091DE69CD1BDCE0F001CD9F1A
:101DB000F89400921C0B10921D0B78940F01E09187
:101DC000DD69E2FF06C0C090CA69E89AEFE0E093DF
:101DD0001301E9E06DC0E0EFF0E0F894E0931C0B34
:101DE000F0931D0B7894EAE063C0F091DD69E09117
:101DF000CB69F3FDE0930208E0EEF1E0F894E093A4
:101E00001C0BF0931D0B7894EBE052C0F091DD6950
:101E1000E091CC69F4FDE0930208ECE049C0F09158
:101E2000DD69E091CD69F5FDE0930208EDE040C089
:101E3000F091DD69E091CE69F6FDE0930208EEE0F5
:101E400037C0F091DD69E091CF69F7FDE0930208BA
:101E5000E2E0E093110BEFE02BC0E001E091A86914
:101E6000F091A969F695E795F695E795F695E795CA
:101E7000E21DFBEAEF9FE12DEC51F091DF69EF0FDE
:101E8000E093E5690E01F091DD69FC7F71F0E0EE11
:101E9000F9E6C191C583C191C583C191C583C19143
:101EA000C583C191C583C191C5832092DD69ECCD05
:101EB000E093AC69AF91BF91CF91DF91E1E0E09306
:101EC000150BE1E0E0935201EF91EFBFEF91FF912D
:101ED00008950895C4EBD9E6A091B3692092FF69F3
:101EE000E881EB58F0E0F04E0994FFC014C113C133
:101EF00012C111C110C10FC10EC10DC10CC10BC166
:101F00000AC109C108C107C106C105C104C103C195
:101F100002C101C100C1FFC0FEC0FDC0FCC0FBC0CA
:101F2000FAC0F9C0F8C0F7C0F6C0F5C0F4C0F3C0FD
:101F3000F2C0F1C0F0C0EFC0EEC0EDC0ECC0EBC02D
:101F4000EAC0E9C0E8C0E7C0E6C0E5C0E4C0E3C05D
:101F5000E2C0E1C0E0C0DFC0DEC0DDC0DCC0DBC08D
:101F6000DAC0D9C0D8C0D7C0D6C0D5C0D4C0D3C0BD
:101F7000D2C0D1C0D0C0CFC0CEC0CDC0CCC0CBC0ED
:101F8000CAC0C9C0C8C0C7C0C6C0C5C0C4C0C3C01D
:101F9000C2C0C1C0C0C0BFC0BEC0BDC0BCC0BBC04D
:101FA000BAC0B9C0B8C0B7C0B6C0B5C0B4C0B3C07D
:101FB000B2C0B1C0B0C0AFC0AEC0ADC0ACC0ABC0AD
:101FC000AAC0A9C0A8C0A7C0A6C0A0C09FC09EC0EC
:101FD0009DC09CC09BC09AC099C098C097C096C035
:101FE00095C094C093C092C091C0A2C0A1C0A0C02F
:101FF0009FC09EC09DC09CC09BC09AC099C098C005
:1020000097C096C095C094C093C092C091C090C034
:102010008FC08EC08DC08CC08BC08AC089C088C064
:1020200087C086C085C084C083C082C081C080C094
:102030007FC07EC07DC07CC07BC07AC079C078C0C4
:1020400077C076C075C074C073C072C071C070C0F4
:102050006FC06EC06DC06CC06BC06AC069C068C024
:1020600067C066C065C064C063C063C062C061C051
:1020700060C05FC05EC05DC05CC05BC05AC059C07C
:1020800058C057C056C055C054C053C052C051C0AC
:1020900050C04FC04EC04DC04CC04BC04AC049C0DC
:1020A00048C047C046C045C044C043C042C041C00C
:1020B00040C03FC03EC03DC03CC01AC019C018C09F
:1020C00017C016C015C014C013C012C011C010C074
:1020D0000FC00EC00DC00CC00BC00AC009C008C0A4
:1020E00007C006C00DC009C00EC0A150219654C043
:1020F000A093006AC093FD69FCCAA1502196E7C075
:10210000A1502196EDC1A1502196D9C0E091026A5B
:10211000E33008F0F2CAEA9AE881F091EC69FF77BF
:10212000B091ED69B7FFEF135BCAA150219634C09F
:10213000E0CAEA9AE981E330E88111F4E03C61F019
:10214000F091ED69EF134CCAE981F091EC69EF135E
:1021500047CAA250229620C0A2502296EB9A00C0F5
:10216000EA98A093006AC093FD69E881E295EF7058
:10217000E454F0E0FF4D0994BACAB9CAB8CAB7CA64
:10218000B6CAB5CAB4CAB3CAB2CAB1CAB0CAAFCA6B
:10219000AECAADCA8ECA89CAA093006AC093FD694F
:1021A000E881E295EF70E952F0E0FF4D09940FC02D
:1021B00024C039C038C01ACA19CA18CA17CA40CAB6
:1021C0003FCA46CA41CA55C054C073CA6ECAE991D3
:1021D000EF70E351F0E0FF4D09945ACA62CA8BCA0E
:1021E0008ACA85CA84CA83CA82CA81CA80CA16CAF0
:1021F00015CA7DCA7CCA7BCA0DCAE991EF70ED5F32
:10220000F0E0FE4D099473CA72CA00CAFFC96FCAD2
:102210006ECA6DCA6CCA6BCA6ACA69CA68CA67CA1A
:1022200066CA65CA64CAE991EF71E75EF0E0FE4DE7
:1022300009945DCA5CCA5BCA5ACA59CA58CA57CA05
:1022400056CA55CA54CA53CA52CA51CA50CA4FCAAA
:102250004ECA4DCA4CCA4BCA4ACA49CA48CA47CADA
:1022600046CA45CA44CA43CA42CAC8C9CBC93FCAFA
:10227000C1C9E991EF71E15CF0E0FE4D0994DCC960
:10228000D1C9D3C934CA33CA32CA31CA30CA2FCA33
:102290002ECA2DCA2CCA2BCA2ACA29CA28CA27CA9A
:1022A00026CA25CA24CA23CA22CA21CA20CADCC90E
:1022B000DFC9E2C9E5C9E8C9BBC9CEC9D1C9A09384
:1022C000006AC093FD69E881E21111CA8CC9A0932C
:1022D000006AC093FD69E991E059F0E0FE4D099470
:1022E00006CA05CA04CA03CA02CA01CA00CAFFC98B
:1022F000FEC9FDC9FCC9FBC9FAC9F9C9F8C9F7C9C2
:10230000F6C9F5C9F4C9F3C9F2C9F1C9F0C9EFC9F1
:10231000EEC9EDC9ECC9EBC9EAC9E9C9E8C9E7C921
:10232000E6C9E5C9E4C9E3C9E2C9E1C9E0C9DFC951
:10233000DEC9DDC9DCC9DBC9DAC9D9C9D8C9D7C981
:10234000D6C9D5C9D4C9D3C9D2C9D1C9D0C9CFC9B1
:10235000CEC9CDC9CCC9CBC9CAC9C9C9C8C9C7C9E1
:10236000C6C9C5C9C4C9C3C9C2C9C1C9C0C9BFC911
:10237000BEC9BDC9BCC9BBC9BAC9B9C9B8C9B7C941
:10238000B6C9B5C9B4C9B3C9B2C9B1C9B0C9AFC971
:10239000AEC9ADC9ACC9ABC9AAC9A9C9A8C9A7C9A1
:1023A000A6C9A5C9A4C9A3C9A2C9A1C9A0C99FC9D1
:1023B0009EC99DC99CC99BC99AC999C998C997C901
:1023C00096C995C994C993C992C991C990C98FC931
:1023D0008EC98DC98CC98BC98AC989C988C987C961
:1023E00086C985C984C983C982C981C980C97FC991
:1023F0007EC97DC97CC97BC97AC979C978C977C9C1
:1024000076C975C974C973C972C971C970C96FC9F0
:102410006EC96DC96CC96BC96AC969C968C967C920
:1024200066C965C964C963C962C961C960C95FC950
:102430005EC95DC95CC95BC95AC959C958C957C980
:1024400056C955C954C953C952C951C950C94FC9B0
:102450004EC94DC94CC94BC94AC949C948C947C9E0
:1024600046C945C944C943C942C941C940C93FC910
:102470003EC93DC93CC93BC93AC939C938C937C940
:1024800071C970C96FC96EC96DC96CC96BC96AC998
:1024900069C968C967C966C965C964C963C962C9C8
:1024A0006BC96AC969C968C967C966C965C964C9A8
:1024B00063C962C961C960C95FC95EC95DC95CC9D8
:1024C00016C915C914C913C912C911C910C90FC930
:1024D0000EC90DC90CC90BC928C932C934C936C9BE
:1024E000A093006AC093FD69E991E03F08F4FFC83A
:1024F000EF70E358F0E0FD4D099450C9F8C8F7C8F3
:10250000F6C8F5C8F4C8F3C84BC9F1C8F0C8EFC89D
:10251000EEC8EDC8ECC8EBC8EAC834D02AD007D062
:102520000E940116E093066AF093076A089582E01C
:10253000F0910C68E0910D68EF01CD2B71F481E012
:10254000E0910070EF77F0E0C0911970C5FF05C011
:10255000F0910D70E0910E70F06CE093EC69F093E7
:10256000ED69CEEFD4E16BC1F8940E941A240C946B
:1025700049166ED0B0E029D0B395A091046ABA177D
:10258000D1F70895E091FF14E030A9F0EF3F09F092
:1025900051D15ED0B0E0A8950FD020F4CE2FD4E179
:1025A0008A2F4BD1B395A091046ABA17A9F7CFEF40
:1025B000D4E180E044D108952FD0339609942CD0F3
:1025C0003196099429D03296099426D030960994F0
:1025D000A0E020C0EA81A9811BC0EA81F4E1A081CA
:1025E000F0E7A08315C0EA81F0E7A08111C0EA817D
:1025F000F0E700D10DC0E981FA81A08109C0E9812D
:10260000FA81A08305C00F92C895A02D0F9000C03D
:102610000894089588940895CB2FD091046ACD171B
:1026200078F4D0E0CC0FDD1FCC0FDD1FF091056AF0
:10263000DF0FE881E43149F0F0E0EF5EF74D0895F7
:10264000C0E0D4EDE1E1F8E20895E981FA8108956E
:10265000A0E0B0E0B03059F4A03019F0A13021F082
:1026600006C0A6E7B2ED05C0A5E6B4ED02C0A0E045
:10267000B2EDA093046AB093056A089503C007C041
:1026800009C010C0A0910014A0930070C1CFA09108
:102690000070BECFAA2329F022F0E0E0F0E7AAD034
:1026A000B7CF96CFE0E0A3E0B3CF92CF02C003C094
:1026B0008FCFADE0ADCFA83011F4EC9AA9CF88CF81
:1026C00003C007C009C00FC0A0912F14A0932F70A2
:1026D0009FCFA0912F709CCFEA2F0E949B12EFE218
:1026E000F0E788D095CFEFE2A0E092CF71CF06C09F
:1026F0006FCF6ECF6DCF05C06BCF6ACFE1E0F1E950
:1027000082CFE0E0F1E97FCFF0951FB6F89400901A
:102710000F6A0F220E2A00920F6A1FBE0895809141
:102720003B70E0FF80E0F0FD80933B6880913C705F
:10273000E1FF80E0F1FD80933D6880913D70E2FF14
:1027400080E0F2FD80933F6880913E70E3FF80E07F
:10275000F3FD8093416880913F70E4FF80E0F4FDD9
:10276000809343680C949D27EBE3F8E6A4E9B5ED6C
:10277000DAE081919081891721F010F09F5F01C00C
:1027800091509193CD91C2119883AA3991F70895F0
:10279000E0910E6AEE230895E0913A70EE3108F070
:1027A000EEE1E0938506FFB7F894E0910E6AE15000
:1027B00010F0E0930E6AFFBFE1E0E0938606089513
:1027C0002092106A2092116A089504D0FE2FE0E250
:1027D000EF1B0895E091116AF091106AEF1B08F465
:1027E000E1950895E091116AF091106A8894EF13D1
:1027F00008940895C091116ACE5ED0E0D549B9938E
:10280000E993F993A993C251C03208F0CC27C09341
:10281000116A0895C091106ACE5ED0E0D549B99191
:10282000E991F991A991C251C03208F0CC27C09327
:10283000106A089590E3889408C092E102C093E181
:1028400000C0A881A817A9F00894A0910210A1FDCA
:10285000FCCFA0FDFACFADE9A4BF9093001008F41F
:102860008993A4BFA1E0A0930010A0910210A1FD44
:10287000FCCF08950895D3E810C211D2C4D10FD26D
:10288000E0910210E1FDFACFADDFC0F7C3DFC081F8
:10289000CA17B1F3A083F4E1CDE9D3E1C4BFD0936B
:1028A0000010A083D1E0C4BFD0930010D1E0D0933A
:1028B0000410D0930310E2CF0C94ED26F0D10E94C7
:1028C00094160E94E0269FD1F9CF000044D20E94C6
:1028D0005A18A9F036D282E390E00E94372636D209
:1028E00088EC90E00E9437262CD282E390E00E9490
:1028F00037262CD288EE93E00E943726E7CF21D2EC
:1029000082E390E00E94372621D282EE94E00E947A
:102910003726DCCF0E94B4230C945D140E948116EC
:102920000C94EB14E091C5692092C569E093C469E9
:102930000895FDECECEADAE6C4E582E10E94201598
:1029400014D037D03FD047D04FD057D05FD067D0CA
:102950006FD011272227D9E0C9E9C093906AD0939C
:10296000916A089578940C94BC24E4E5FAE6E09327
:102970008D6AF0938E6A08950E943B242092946A97
:102980002092956A2092966A1D7FE091946AF09158
:10299000956AC091966A3196C21D11FDEFCF222330
:1029A000D1F3E093946AF093956AC093966A2BD121
:1029B000ECCFE0EEF4E2E0933F69F0933E690895D6
:1029C0000C943D24E9EEF4E2E0935F69F0935E69D4
:1029D00008950C945C24E2EFF4E2E0936169F093D3
:1029E00060690895A2E92DC0EBEFF4E2E09363691A
:1029F000F09362690895A3E924C0E4E0F5E2E0936E
:102A00006569F09364690895A4E91BC0EDE0F5E2FF
:102A1000E0938569F093846908950C945E24E6E15F
:102A2000F5E2E0938769F09386690895A6E909C005
:102A3000EFE1F5E2E093A769F093A66908950C949D
:102A400065240C94331610FD7AC0F0939F6AFFB78B
:102A5000F0939E6A1160E093A06AD093A16AC0933C
:102A6000A26AB093A36AA093A46A9093A56A809384
:102A7000A66A1092A76A0092A86AC091926AC3954A
:102A8000C093926A09F41860CF7009F41460C0FD15
:102A900014C01061C091906AD091916AC15015F430
:102AA0001062C97F10F41064C979D04010F4106826
:102AB000D970C093906AD093916A17FD50D071D0AD
:102AC00014FD0E948A2413FD0E948E2417FD0E948B
:102AD000922414FF1BC0DAE6CAE6A1E0E881F9817E
:102AE000319788F071F42A2BE883F983EA81FB811E
:102AF000FE2B49F0FB810180A0950A22A09501825E
:102B000002C0E883F9832496AA0F41F70090A86ACF
:102B10001090A76A8091A66A9091A56AA091A46A74
:102B2000B091A36AC091A26AD091A16AE091A06A13
:102B30001270F0919E6AFFBFF0919F6A0895F89419
:102B4000E1E0F1E00E948927FFEF3197F1F7E0E043
:102B5000F1E00E948927F0E43197F1F7F0CFE0919E
:102B6000956AF091966AEE0FFF1FEBE8FE9F000C4E
:102B7000111CE4E6E119E093936A1260C091986A2F
:102B8000D091996AC0939A6AD0939B6AD695C7955B
:102B9000D695C795C093976A2092996A2092986AB1
:102BA0000895E091926AEF70E0938F6AEE0FF0E083
:102BB000E452FA4D099408950C94DB250C94DB251E
:102BC0000C94DB250C94DB250C94DB250C94DB2585
:102BD0000C94DB250C94DB250C94DB250C94DB2575
:102BE0000C94DB250C94DB250C94DB250C94DB2565
:102BF0000C94DB250C94DB25F0918A6AFF0F11F011
:102C00002F1708F40895E091986AF091996A319627
:102C1000E093986AF093996AC0918D6AD0918E6A18
:102C2000EDB7FEB7E993F883E0E2F22FC0E8FF0FBB
:102C300030F019F0C695E450D1F7CC27EE27C093B9
:102C40008A6AE0938C6AE695E0938B6ADAE6C4E5DB
:102C5000CE0FD21DC0938D6AD0938E6AE991F88110
:102C6000CFB7F894EDBFFEBFCFBF08959927C6E652
:102C7000DAE6B0918C6ACB0FD21DBFB7F894888387
:102C80009983D0918A6AD0952D23BFBFBCCF07D03E
:102C9000BACF03D0B8CFD0918A6A2D2B0895D091A6
:102CA0008A6AD0952D230895208221820895689400
:102CB00001C0E894D0918A6ABFB7F894C081CC2350
:102CC00021F0CE7FC083BFBF0895C181CD2BC183CA
:102CD000BFBF0EF0DCCFCBCFBFB7F894C191D0818E
:102CE000DD2321F4C160C293BFBF089520822292E8
:102CF000BFBF0DC0BFB7F894D081D260D193D0814F
:102D0000DD2311F4BFBF08952082BFBF00C0E6E6F7
:102D1000FAE6CD2F3496CC0F41F0E0F7F8942192EB
:102D2000219221922192BFBFF6CFB7CF2082089582
:102D3000BFB7F894A081AE7FA083BFBF0895F8DF2E
:102D4000B8CFE1E0F1E00E9489270895E0E0F1E0EA
:102D50000E9489270895C5EFDAE6E8E9FDEC0C2E1C
:102D60009FEFA191B191BF3F81F011968FEF8395B5
:102D70001D901120E1F3821183958993981788F3B0
:102D80008211982F82110C2EECCF90939C6A08949C
:102D9000C009C0939D6A089500692069406960690F
:102DA00062696469666986698869FFFF1F693D69B0
:102DB0005D695F696169636983698569A56908956A
:102DC000E091C16AE2110895E091C26AE2110895AA
:102DD000EFEFE093C26A2260089507D00CD011D0C3
:102DE00018D01ED025D02CD0F8CF80D0E0E558D018
:102DF000E0914B6A55C07AD0E1E552D0E09112687B
:102E00004FC074D0E3E24CD0E091F26AE7FDEFE707
:102E100047C06CD0E0E644D0E0911368EF7140C049
:102E200065D0E1E63DD0E0911368F091146830C0C0
:102E30005DD0E2E635D0E0911468F091156828C0C5
:102E400055D0E3E62DD0E0911568F091166820C0CA
:102E50004DD0E4E625D0E0911668F091176818C0CF
:102E600045D0E5E61DD0E0911768F091186810C0D4
:102E70003DD0E6E615D0E0911868F091196808C0D9
:102E800035D0E7E60DD0E0911968F0911A6800C0DE
:102E9000E07EE295E695FF0FFF0FFF0FEF2B00C0DE
:102EA000E093C36A0BD00AD009D008D007D006D06F
:102EB00005D004D0F0E4E0E40C946916E091C36A14
:102EC000E695E093C36AF0ECE0E808F4E0640E9461
:102ED000691605D0F0E8E0E00E94691600C0E091B4
:102EE0004370F0E0FC963197F1F70895EFEFE0932F
:102EF000C16A84E190E00E9437262092C16A0E9454
:102F000047262092C26A089508950895E2E0F2E00B
:102F100000C0EF23F0950090DC6A0F22E02906C084
:102F2000E0E004C0EFEF02C0E1E000C0E093DC6A43
:102F300000C0E091DC6A0C940716EF23F095009036
:102F4000DD6A0F22E02908C0E0E006C0E5E504C024
:102F5000EFEF02C0E3E000C0E093DD6A00C0E09163
:102F6000DD6A0C940516310B00000102013100806E
:102F7000426A000100404031008000000002310B35
:102F80000000010201310081426A0001004040312D
:102F9000008100000002310B0000010102310080BD
:102FA000426A000100404031008000000002310B05
:102FB0000000010102310081426A000100404031FD
:102FC0000081000000023103000001030431008091
:102FD000E96A000100404031008000000006310332
:102FE0000000010403310080EB6A00010040403121
:102FF000008000000006110B000001054011008058
:10300000326A0001010540110083446A0001014257
:1030100040110081ED6A0001004040110080000075
:103020000002D6CAD5CAD4CAD3CAD2CAD3CAD0CA51
:10303000CFCAD3CAD8CADBCACDCACACADCCAC8CAB0
:10304000C7CAC6CAD8CADBCAC3CAC2CAC1CAC0CAEA
:10305000BFCAFFFFFFFFFFFFFFFFFFFFFFFFFFFFF5
:10320000143E237F080101FF080402FF080403FFA6
:10321000088004FF084005FF042200001455230025
:1032200008010603083207FF081008FF0404000025
:103230000800090008000A0008010BFF08010CFF44
:1032400008C30DFF08E80EFF08000FFF080010FF7D
:103250000800110008001200080013000800140004
:103260000000000000000000080017FF0896181179
:10327000080A1911101A7000040000FF04FF00FF73
:1032800008011BFF08021CFF08041DFF08081EFFA1
:1032900008101FFF082020FF084021FF088022FFA0
:1032A000080023FF080024FF080025FF080026FF70
:1032B000080027FF080028FF0804290F08002A0F2C
:1032C00008042B0F08002C0F0000000008042EFF3C
:1032D000146023FF080330FF0800313F0803320F5A
:1032E00008F033FF08FA34FF086435FF086436FF3E
:1032F000088037FF088038FF00000000081E3AFFF2
:1033000008FF3BFF08FF3CFF08FF3DFF08FF3EFFB3
:1033100008FF3FFF08FF40FF088741FF080342FF07
:10332000080043FF00000000000000000000000053
:10333000000000000000000000000000000000008D
:10334000000000000000000000000000000000007D
:10335000000000000000000000000000000000006D
:10336000000000000000000000000000000000005D
:10337000000000000000000000000000000000004D
:103380000C0068000C0168000C0268000C03680067
:103390000C0468000C0568000C0668000C07680047
:1033A000080044FF080045FF040100000409000074
:1033B0000C01A1000C0091000C0191000C00910087
:1033C0000C1180000C108000147623FF147A23FF68
:1033D0000CFF14000CFE1400FFFFFFFFFFFFFFFFB8
:1034000004090000040100000000000000000000AA
:103410000C0368000C0268000C0168000C006800D6
:103420000C0768000C0668000C0568000C046800B6
:103430000C0877000C0977000C0A77000C0B77005A
:103440000C0C77000C0D77000C0E77000C0F77003A
:103450000C1077000C1177000C1277000C1377001A
:103460000C1477000C1577000C1677000C177700FA
:103470000C1877000C1977000C1A77000C1B7700DA
:103480000C1C77000C1D77000C1E77000C1F7700BA
:103490000C2077000C2177000C2277000C2377009A
:1034A0000C2477000C2577000C2677000C2777007A
:1034B0000C2877000C2977000C2A77000C2B77005A
:1034C0000C2C77000C2D77000C2E77000C2F77003A
:1034D0000C3077000C3177000C3277000C3377001A
:1034E0000C3477000C3577000C3677000C397700F8
:1034F0000C3A77000C1A77000C1B77000C526A000C
:103500000C536A00000000000000000000000000F2
:103510000000000000000000000000000C2F680008
:103520000C3068000C3168000C3268000C37680001
:103530000C3868000C2168000C2268000C2368001D
:103540000C2468000C2968000C2A68000C2B680009
:103550000C2C68000C2D68000C2E68000CE669002D
:103560000CE769000CE869000CE969000CEA6900E5
:103570000CEB69000CB269000CC369000CC4690053
:103580000CEF6A000CF06A000CF16A000C20680075
:10359000045500002C2A29280000110B0000011FEF
:1035A00040110080086A00010040401100800000C6
:1035B0000002110B0000011F401100800A6A000187
:1035C00000404011008000000002FFFFFFFFFFFFEE
:00000001FF
; 
; *** EOF 
